{
  "contractName": "GUArtMarket",
  "abi": [
    {
      "inputs": [],
      "stateMutability": "nonpayable",
      "type": "constructor"
    },
    {
      "anonymous": false,
      "inputs": [
        {
          "indexed": true,
          "internalType": "address",
          "name": "owner",
          "type": "address"
        },
        {
          "indexed": true,
          "internalType": "address",
          "name": "approved",
          "type": "address"
        },
        {
          "indexed": true,
          "internalType": "uint256",
          "name": "tokenId",
          "type": "uint256"
        }
      ],
      "name": "Approval",
      "type": "event"
    },
    {
      "anonymous": false,
      "inputs": [
        {
          "indexed": true,
          "internalType": "address",
          "name": "owner",
          "type": "address"
        },
        {
          "indexed": true,
          "internalType": "address",
          "name": "operator",
          "type": "address"
        },
        {
          "indexed": false,
          "internalType": "bool",
          "name": "approved",
          "type": "bool"
        }
      ],
      "name": "ApprovalForAll",
      "type": "event"
    },
    {
      "anonymous": false,
      "inputs": [
        {
          "indexed": true,
          "internalType": "address",
          "name": "previousOwner",
          "type": "address"
        },
        {
          "indexed": true,
          "internalType": "address",
          "name": "newOwner",
          "type": "address"
        }
      ],
      "name": "OwnershipTransferred",
      "type": "event"
    },
    {
      "anonymous": false,
      "inputs": [
        {
          "indexed": true,
          "internalType": "address",
          "name": "from",
          "type": "address"
        },
        {
          "indexed": true,
          "internalType": "address",
          "name": "to",
          "type": "address"
        },
        {
          "indexed": true,
          "internalType": "uint256",
          "name": "tokenId",
          "type": "uint256"
        }
      ],
      "name": "Transfer",
      "type": "event"
    },
    {
      "inputs": [
        {
          "internalType": "address",
          "name": "to",
          "type": "address"
        },
        {
          "internalType": "uint256",
          "name": "tokenId",
          "type": "uint256"
        }
      ],
      "name": "approve",
      "outputs": [],
      "stateMutability": "nonpayable",
      "type": "function"
    },
    {
      "inputs": [
        {
          "internalType": "uint256",
          "name": "",
          "type": "uint256"
        }
      ],
      "name": "auctions",
      "outputs": [
        {
          "internalType": "contract GUArtAuction",
          "name": "",
          "type": "address"
        }
      ],
      "stateMutability": "view",
      "type": "function"
    },
    {
      "inputs": [
        {
          "internalType": "address",
          "name": "owner",
          "type": "address"
        }
      ],
      "name": "balanceOf",
      "outputs": [
        {
          "internalType": "uint256",
          "name": "",
          "type": "uint256"
        }
      ],
      "stateMutability": "view",
      "type": "function"
    },
    {
      "inputs": [],
      "name": "baseURI",
      "outputs": [
        {
          "internalType": "string",
          "name": "",
          "type": "string"
        }
      ],
      "stateMutability": "view",
      "type": "function"
    },
    {
      "inputs": [
        {
          "internalType": "uint256",
          "name": "tokenId",
          "type": "uint256"
        }
      ],
      "name": "getApproved",
      "outputs": [
        {
          "internalType": "address",
          "name": "",
          "type": "address"
        }
      ],
      "stateMutability": "view",
      "type": "function"
    },
    {
      "inputs": [
        {
          "internalType": "address",
          "name": "owner",
          "type": "address"
        },
        {
          "internalType": "address",
          "name": "operator",
          "type": "address"
        }
      ],
      "name": "isApprovedForAll",
      "outputs": [
        {
          "internalType": "bool",
          "name": "",
          "type": "bool"
        }
      ],
      "stateMutability": "view",
      "type": "function"
    },
    {
      "inputs": [],
      "name": "name",
      "outputs": [
        {
          "internalType": "string",
          "name": "",
          "type": "string"
        }
      ],
      "stateMutability": "view",
      "type": "function"
    },
    {
      "inputs": [],
      "name": "owner",
      "outputs": [
        {
          "internalType": "address",
          "name": "",
          "type": "address"
        }
      ],
      "stateMutability": "view",
      "type": "function"
    },
    {
      "inputs": [
        {
          "internalType": "uint256",
          "name": "tokenId",
          "type": "uint256"
        }
      ],
      "name": "ownerOf",
      "outputs": [
        {
          "internalType": "address",
          "name": "",
          "type": "address"
        }
      ],
      "stateMutability": "view",
      "type": "function"
    },
    {
      "inputs": [],
      "name": "renounceOwnership",
      "outputs": [],
      "stateMutability": "nonpayable",
      "type": "function"
    },
    {
      "inputs": [
        {
          "internalType": "address",
          "name": "from",
          "type": "address"
        },
        {
          "internalType": "address",
          "name": "to",
          "type": "address"
        },
        {
          "internalType": "uint256",
          "name": "tokenId",
          "type": "uint256"
        }
      ],
      "name": "safeTransferFrom",
      "outputs": [],
      "stateMutability": "nonpayable",
      "type": "function"
    },
    {
      "inputs": [
        {
          "internalType": "address",
          "name": "from",
          "type": "address"
        },
        {
          "internalType": "address",
          "name": "to",
          "type": "address"
        },
        {
          "internalType": "uint256",
          "name": "tokenId",
          "type": "uint256"
        },
        {
          "internalType": "bytes",
          "name": "_data",
          "type": "bytes"
        }
      ],
      "name": "safeTransferFrom",
      "outputs": [],
      "stateMutability": "nonpayable",
      "type": "function"
    },
    {
      "inputs": [
        {
          "internalType": "address",
          "name": "operator",
          "type": "address"
        },
        {
          "internalType": "bool",
          "name": "approved",
          "type": "bool"
        }
      ],
      "name": "setApprovalForAll",
      "outputs": [],
      "stateMutability": "nonpayable",
      "type": "function"
    },
    {
      "inputs": [
        {
          "internalType": "bytes4",
          "name": "interfaceId",
          "type": "bytes4"
        }
      ],
      "name": "supportsInterface",
      "outputs": [
        {
          "internalType": "bool",
          "name": "",
          "type": "bool"
        }
      ],
      "stateMutability": "view",
      "type": "function"
    },
    {
      "inputs": [],
      "name": "symbol",
      "outputs": [
        {
          "internalType": "string",
          "name": "",
          "type": "string"
        }
      ],
      "stateMutability": "view",
      "type": "function"
    },
    {
      "inputs": [
        {
          "internalType": "uint256",
          "name": "index",
          "type": "uint256"
        }
      ],
      "name": "tokenByIndex",
      "outputs": [
        {
          "internalType": "uint256",
          "name": "",
          "type": "uint256"
        }
      ],
      "stateMutability": "view",
      "type": "function"
    },
    {
      "inputs": [
        {
          "internalType": "address",
          "name": "owner",
          "type": "address"
        },
        {
          "internalType": "uint256",
          "name": "index",
          "type": "uint256"
        }
      ],
      "name": "tokenOfOwnerByIndex",
      "outputs": [
        {
          "internalType": "uint256",
          "name": "",
          "type": "uint256"
        }
      ],
      "stateMutability": "view",
      "type": "function"
    },
    {
      "inputs": [
        {
          "internalType": "uint256",
          "name": "tokenId",
          "type": "uint256"
        }
      ],
      "name": "tokenURI",
      "outputs": [
        {
          "internalType": "string",
          "name": "",
          "type": "string"
        }
      ],
      "stateMutability": "view",
      "type": "function"
    },
    {
      "inputs": [],
      "name": "totalSupply",
      "outputs": [
        {
          "internalType": "uint256",
          "name": "",
          "type": "uint256"
        }
      ],
      "stateMutability": "view",
      "type": "function"
    },
    {
      "inputs": [
        {
          "internalType": "address",
          "name": "from",
          "type": "address"
        },
        {
          "internalType": "address",
          "name": "to",
          "type": "address"
        },
        {
          "internalType": "uint256",
          "name": "tokenId",
          "type": "uint256"
        }
      ],
      "name": "transferFrom",
      "outputs": [],
      "stateMutability": "nonpayable",
      "type": "function"
    },
    {
      "inputs": [
        {
          "internalType": "address",
          "name": "newOwner",
          "type": "address"
        }
      ],
      "name": "transferOwnership",
      "outputs": [],
      "stateMutability": "nonpayable",
      "type": "function"
    },
    {
      "inputs": [
        {
          "internalType": "uint256",
          "name": "token_id",
          "type": "uint256"
        }
      ],
      "name": "createAuction",
      "outputs": [],
      "stateMutability": "nonpayable",
      "type": "function"
    },
    {
      "inputs": [
        {
          "internalType": "uint256",
          "name": "token_id",
          "type": "uint256"
        }
      ],
      "name": "getAuction",
      "outputs": [
        {
          "internalType": "contract GUArtAuction",
          "name": "auction",
          "type": "address"
        }
      ],
      "stateMutability": "view",
      "type": "function"
    },
    {
      "inputs": [
        {
          "internalType": "string",
          "name": "tokenURI",
          "type": "string"
        }
      ],
      "name": "registerArt",
      "outputs": [],
      "stateMutability": "payable",
      "type": "function"
    },
    {
      "inputs": [
        {
          "internalType": "uint256",
          "name": "token_id",
          "type": "uint256"
        }
      ],
      "name": "endAuction",
      "outputs": [],
      "stateMutability": "nonpayable",
      "type": "function"
    },
    {
      "inputs": [
        {
          "internalType": "uint256",
          "name": "token_id",
          "type": "uint256"
        }
      ],
      "name": "auctionEnded",
      "outputs": [
        {
          "internalType": "bool",
          "name": "",
          "type": "bool"
        }
      ],
      "stateMutability": "view",
      "type": "function"
    },
    {
      "inputs": [
        {
          "internalType": "uint256",
          "name": "token_id",
          "type": "uint256"
        }
      ],
      "name": "highestBid",
      "outputs": [
        {
          "internalType": "uint256",
          "name": "",
          "type": "uint256"
        }
      ],
      "stateMutability": "view",
      "type": "function"
    },
    {
      "inputs": [
        {
          "internalType": "uint256",
          "name": "token_id",
          "type": "uint256"
        },
        {
          "internalType": "address",
          "name": "sender",
          "type": "address"
        }
      ],
      "name": "pendingReturn",
      "outputs": [
        {
          "internalType": "uint256",
          "name": "",
          "type": "uint256"
        }
      ],
      "stateMutability": "view",
      "type": "function"
    },
    {
      "inputs": [
        {
          "internalType": "uint256",
          "name": "token_id",
          "type": "uint256"
        }
      ],
      "name": "bid",
      "outputs": [],
      "stateMutability": "payable",
      "type": "function"
    }
  ],
  "bytecode": "0x6080604052620000146200021960201b60201c565b600b60006101000a81548173ffffffffffffffffffffffffffffffffffffffff021916908373ffffffffffffffffffffffffffffffffffffffff1602179055503480156200006157600080fd5b506040518060400160405280600b81526020017f47554172744d61726b65740000000000000000000000000000000000000000008152506040518060400160405280600481526020017f4755414d00000000000000000000000000000000000000000000000000000000815250620000e66301ffc9a760e01b6200024360201b60201c565b8160069080519060200190620000fe92919062000354565b5080600790805190602001906200011792919062000354565b50620001306380ac58cd60e01b6200024360201b60201c565b62000148635b5e139f60e01b6200024360201b60201c565b6200016063780e9d6360e01b6200024360201b60201c565b50506000620001746200034c60201b60201c565b905080600a60006101000a81548173ffffffffffffffffffffffffffffffffffffffff021916908373ffffffffffffffffffffffffffffffffffffffff1602179055508073ffffffffffffffffffffffffffffffffffffffff16600073ffffffffffffffffffffffffffffffffffffffff167f8be0079c531659141344cd1fd0a4f28419497f9722a3daafe3b4186f6b6457e060405160405180910390a350620003fa565b6000600a60009054906101000a900473ffffffffffffffffffffffffffffffffffffffff16905090565b63ffffffff60e01b817bffffffffffffffffffffffffffffffffffffffffffffffffffffffff19161415620002e0576040517f08c379a000000000000000000000000000000000000000000000000000000000815260040180806020018281038252601c8152602001807f4552433136353a20696e76616c696420696e746572666163652069640000000081525060200191505060405180910390fd5b6001600080837bffffffffffffffffffffffffffffffffffffffffffffffffffffffff19167bffffffffffffffffffffffffffffffffffffffffffffffffffffffff1916815260200190815260200160002060006101000a81548160ff02191690831515021790555050565b600033905090565b828054600181600116156101000203166002900490600052602060002090601f016020900481019282601f106200039757805160ff1916838001178555620003c8565b82800160010185558215620003c8579182015b82811115620003c7578251825591602001919060010190620003aa565b5b509050620003d79190620003db565b5090565b5b80821115620003f6576000816000905550600101620003dc565b5090565b614791806200040a6000396000f3fe6080604052600436106101c25760003560e01c806370a08231116100f7578063b14c63c511610095578063c87b56dd11610064578063c87b56dd14610c14578063d5563f3114610cc8578063e985e9c514610d03578063f2fde38b14610d8a576101c2565b8063b14c63c514610a09578063b1dc7b8b14610a58578063b88d4fde14610ac7578063b9a2de3a14610bd9576101c2565b80638da5cb5b116100d15780638da5cb5b1461088a57806395d89b41146108cb5780639e7123871461095b578063a22cb465146109ac576101c2565b806370a08231146107a9578063715018a61461080e57806378bd793514610825576101c2565b80632f745c59116101645780634f6ccce71161013e5780634f6ccce714610600578063571a26a01461064f5780636352211e146106b45780636c0360eb14610719576101c2565b80632f745c59146104e857806342842e0e14610557578063454a2ab3146105d2576101c2565b8063095ea7b3116101a0578063095ea7b31461032c57806318160ddd1461038757806323b872dd146103b257806326aa8e571461042d576101c2565b806301ffc9a7146101c757806306fdde0314610237578063081812fc146102c7575b600080fd5b3480156101d357600080fd5b5061021f600480360360208110156101ea57600080fd5b8101908080357bffffffffffffffffffffffffffffffffffffffffffffffffffffffff19169060200190929190505050610ddb565b60405180821515815260200191505060405180910390f35b34801561024357600080fd5b5061024c610e42565b6040518080602001828103825283818151815260200191508051906020019080838360005b8381101561028c578082015181840152602081019050610271565b50505050905090810190601f1680156102b95780820380516001836020036101000a031916815260200191505b509250505060405180910390f35b3480156102d357600080fd5b50610300600480360360208110156102ea57600080fd5b8101908080359060200190929190505050610ee4565b604051808273ffffffffffffffffffffffffffffffffffffffff16815260200191505060405180910390f35b34801561033857600080fd5b506103856004803603604081101561034f57600080fd5b81019080803573ffffffffffffffffffffffffffffffffffffffff16906020019092919080359060200190929190505050610f7f565b005b34801561039357600080fd5b5061039c6110c3565b6040518082815260200191505060405180910390f35b3480156103be57600080fd5b5061042b600480360360608110156103d557600080fd5b81019080803573ffffffffffffffffffffffffffffffffffffffff169060200190929190803573ffffffffffffffffffffffffffffffffffffffff169060200190929190803590602001909291905050506110d4565b005b6104e66004803603602081101561044357600080fd5b810190808035906020019064010000000081111561046057600080fd5b82018360208201111561047257600080fd5b8035906020019184600183028401116401000000008311171561049457600080fd5b91908080601f016020809104026020016040519081016040528093929190818152602001838380828437600081840152601f19601f82011690508083019250505050505050919291929050505061114a565b005b3480156104f457600080fd5b506105416004803603604081101561050b57600080fd5b81019080803573ffffffffffffffffffffffffffffffffffffffff16906020019092919080359060200190929190505050611226565b6040518082815260200191505060405180910390f35b34801561056357600080fd5b506105d06004803603606081101561057a57600080fd5b81019080803573ffffffffffffffffffffffffffffffffffffffff169060200190929190803573ffffffffffffffffffffffffffffffffffffffff16906020019092919080359060200190929190505050611281565b005b6105fe600480360360208110156105e857600080fd5b81019080803590602001909291905050506112a1565b005b34801561060c57600080fd5b506106396004803603602081101561062357600080fd5b81019080803590602001909291905050506113dc565b6040518082815260200191505060405180910390f35b34801561065b57600080fd5b506106886004803603602081101561067257600080fd5b81019080803590602001909291905050506113ff565b604051808273ffffffffffffffffffffffffffffffffffffffff16815260200191505060405180910390f35b3480156106c057600080fd5b506106ed600480360360208110156106d757600080fd5b8101908080359060200190929190505050611432565b604051808273ffffffffffffffffffffffffffffffffffffffff16815260200191505060405180910390f35b34801561072557600080fd5b5061072e611469565b6040518080602001828103825283818151815260200191508051906020019080838360005b8381101561076e578082015181840152602081019050610753565b50505050905090810190601f16801561079b5780820380516001836020036101000a031916815260200191505b509250505060405180910390f35b3480156107b557600080fd5b506107f8600480360360208110156107cc57600080fd5b81019080803573ffffffffffffffffffffffffffffffffffffffff16906020019092919050505061150b565b6040518082815260200191505060405180910390f35b34801561081a57600080fd5b506108236115e0565b005b34801561083157600080fd5b5061085e6004803603602081101561084857600080fd5b8101908080359060200190929190505050611750565b604051808273ffffffffffffffffffffffffffffffffffffffff16815260200191505060405180910390f35b34801561089657600080fd5b5061089f61180a565b604051808273ffffffffffffffffffffffffffffffffffffffff16815260200191505060405180910390f35b3480156108d757600080fd5b506108e0611834565b6040518080602001828103825283818151815260200191508051906020019080838360005b83811015610920578082015181840152602081019050610905565b50505050905090810190601f16801561094d5780820380516001836020036101000a031916815260200191505b509250505060405180910390f35b34801561096757600080fd5b506109946004803603602081101561097e57600080fd5b81019080803590602001909291905050506118d6565b60405180821515815260200191505060405180910390f35b3480156109b857600080fd5b50610a07600480360360408110156109cf57600080fd5b81019080803573ffffffffffffffffffffffffffffffffffffffff169060200190929190803515159060200190929190505050611998565b005b348015610a1557600080fd5b50610a4260048036036020811015610a2c57600080fd5b8101908080359060200190929190505050611b4e565b6040518082815260200191505060405180910390f35b348015610a6457600080fd5b50610ab160048036036040811015610a7b57600080fd5b8101908080359060200190929190803573ffffffffffffffffffffffffffffffffffffffff169060200190929190505050611c8e565b6040518082815260200191505060405180910390f35b348015610ad357600080fd5b50610bd760048036036080811015610aea57600080fd5b81019080803573ffffffffffffffffffffffffffffffffffffffff169060200190929190803573ffffffffffffffffffffffffffffffffffffffff1690602001909291908035906020019092919080359060200190640100000000811115610b5157600080fd5b820183602082011115610b6357600080fd5b80359060200191846001830284011164010000000083111715610b8557600080fd5b91908080601f016020809104026020016040519081016040528093929190818152602001838380828437600081840152601f19601f820116905080830192505050505050509192919290505050611df0565b005b348015610be557600080fd5b50610c1260048036036020811015610bfc57600080fd5b8101908080359060200190929190505050611e68565b005b348015610c2057600080fd5b50610c4d60048036036020811015610c3757600080fd5b8101908080359060200190929190505050612097565b6040518080602001828103825283818151815260200191508051906020019080838360005b83811015610c8d578082015181840152602081019050610c72565b50505050905090810190601f168015610cba5780820380516001836020036101000a031916815260200191505b509250505060405180910390f35b348015610cd457600080fd5b50610d0160048036036020811015610ceb57600080fd5b8101908080359060200190929190505050612368565b005b348015610d0f57600080fd5b50610d7260048036036040811015610d2657600080fd5b81019080803573ffffffffffffffffffffffffffffffffffffffff169060200190929190803573ffffffffffffffffffffffffffffffffffffffff1690602001909291905050506124d7565b60405180821515815260200191505060405180910390f35b348015610d9657600080fd5b50610dd960048036036020811015610dad57600080fd5b81019080803573ffffffffffffffffffffffffffffffffffffffff16906020019092919050505061256b565b005b6000806000837bffffffffffffffffffffffffffffffffffffffffffffffffffffffff19167bffffffffffffffffffffffffffffffffffffffffffffffffffffffff1916815260200190815260200160002060009054906101000a900460ff169050919050565b606060068054600181600116156101000203166002900480601f016020809104026020016040519081016040528092919081815260200182805460018160011615610100020316600290048015610eda5780601f10610eaf57610100808354040283529160200191610eda565b820191906000526020600020905b815481529060010190602001808311610ebd57829003601f168201915b5050505050905090565b6000610eef82612760565b610f44576040517f08c379a000000000000000000000000000000000000000000000000000000000815260040180806020018281038252602c81526020018061465a602c913960400191505060405180910390fd5b6004600083815260200190815260200160002060009054906101000a900473ffffffffffffffffffffffffffffffffffffffff169050919050565b6000610f8a82611432565b90508073ffffffffffffffffffffffffffffffffffffffff168373ffffffffffffffffffffffffffffffffffffffff161415611011576040517f08c379a000000000000000000000000000000000000000000000000000000000815260040180806020018281038252602181526020018061470a6021913960400191505060405180910390fd5b8073ffffffffffffffffffffffffffffffffffffffff1661103061277d565b73ffffffffffffffffffffffffffffffffffffffff16148061105f575061105e8161105961277d565b6124d7565b5b6110b4576040517f08c379a00000000000000000000000000000000000000000000000000000000081526004018080602001828103825260388152602001806145ad6038913960400191505060405180910390fd5b6110be8383612785565b505050565b60006110cf600261283e565b905090565b6110e56110df61277d565b82612853565b61113a576040517f08c379a000000000000000000000000000000000000000000000000000000000815260040180806020018281038252603181526020018061472b6031913960400191505060405180910390fd5b611145838383612947565b505050565b61115261277d565b73ffffffffffffffffffffffffffffffffffffffff1661117061180a565b73ffffffffffffffffffffffffffffffffffffffff16146111f9576040517f08c379a00000000000000000000000000000000000000000000000000000000081526004018080602001828103825260208152602001807f4f776e61626c653a2063616c6c6572206973206e6f7420746865206f776e657281525060200191505060405180910390fd5b60006112036110c3565b905061120f3382612b8a565b6112198183612d7e565b61122281612368565b5050565b600061127982600160008673ffffffffffffffffffffffffffffffffffffffff1673ffffffffffffffffffffffffffffffffffffffff168152602001908152602001600020612e0890919063ffffffff16565b905092915050565b61129c83838360405180602001604052806000815250611df0565b505050565b806112ab81612760565b61131d576040517f08c379a00000000000000000000000000000000000000000000000000000000081526004018080602001828103825260138152602001807f417274206e6f742072656769737465726564210000000000000000000000000081525060200191505060405180910390fd5b6000600c600084815260200190815260200160002060009054906101000a900473ffffffffffffffffffffffffffffffffffffffff1690508073ffffffffffffffffffffffffffffffffffffffff16639cf5453d34336040518363ffffffff1660e01b8152600401808273ffffffffffffffffffffffffffffffffffffffff1681526020019150506000604051808303818588803b1580156113be57600080fd5b505af11580156113d2573d6000803e3d6000fd5b5050505050505050565b6000806113f3836002612e2290919063ffffffff16565b50905080915050919050565b600c6020528060005260406000206000915054906101000a900473ffffffffffffffffffffffffffffffffffffffff1681565b60006114628260405180606001604052806029815260200161460f602991396002612e4e9092919063ffffffff16565b9050919050565b606060098054600181600116156101000203166002900480601f0160208091040260200160405190810160405280929190818152602001828054600181600116156101000203166002900480156115015780601f106114d657610100808354040283529160200191611501565b820191906000526020600020905b8154815290600101906020018083116114e457829003601f168201915b5050505050905090565b60008073ffffffffffffffffffffffffffffffffffffffff168273ffffffffffffffffffffffffffffffffffffffff161415611592576040517f08c379a000000000000000000000000000000000000000000000000000000000815260040180806020018281038252602a8152602001806145e5602a913960400191505060405180910390fd5b6115d9600160008473ffffffffffffffffffffffffffffffffffffffff1673ffffffffffffffffffffffffffffffffffffffff168152602001908152602001600020612e6d565b9050919050565b6115e861277d565b73ffffffffffffffffffffffffffffffffffffffff1661160661180a565b73ffffffffffffffffffffffffffffffffffffffff161461168f576040517f08c379a00000000000000000000000000000000000000000000000000000000081526004018080602001828103825260208152602001807f4f776e61626c653a2063616c6c6572206973206e6f7420746865206f776e657281525060200191505060405180910390fd5b600073ffffffffffffffffffffffffffffffffffffffff16600a60009054906101000a900473ffffffffffffffffffffffffffffffffffffffff1673ffffffffffffffffffffffffffffffffffffffff167f8be0079c531659141344cd1fd0a4f28419497f9722a3daafe3b4186f6b6457e060405160405180910390a36000600a60006101000a81548173ffffffffffffffffffffffffffffffffffffffff021916908373ffffffffffffffffffffffffffffffffffffffff160217905550565b60008161175c81612760565b6117ce576040517f08c379a00000000000000000000000000000000000000000000000000000000081526004018080602001828103825260138152602001807f417274206e6f742072656769737465726564210000000000000000000000000081525060200191505060405180910390fd5b600c600084815260200190815260200160002060009054906101000a900473ffffffffffffffffffffffffffffffffffffffff16915050919050565b6000600a60009054906101000a900473ffffffffffffffffffffffffffffffffffffffff16905090565b606060078054600181600116156101000203166002900480601f0160208091040260200160405190810160405280929190818152602001828054600181600116156101000203166002900480156118cc5780601f106118a1576101008083540402835291602001916118cc565b820191906000526020600020905b8154815290600101906020018083116118af57829003601f168201915b5050505050905090565b600080600c600084815260200190815260200160002060009054906101000a900473ffffffffffffffffffffffffffffffffffffffff1690508073ffffffffffffffffffffffffffffffffffffffff166312fa6feb6040518163ffffffff1660e01b815260040160206040518083038186803b15801561195557600080fd5b505afa158015611969573d6000803e3d6000fd5b505050506040513d602081101561197f57600080fd5b8101908080519060200190929190505050915050919050565b6119a061277d565b73ffffffffffffffffffffffffffffffffffffffff168273ffffffffffffffffffffffffffffffffffffffff161415611a41576040517f08c379a00000000000000000000000000000000000000000000000000000000081526004018080602001828103825260198152602001807f4552433732313a20617070726f766520746f2063616c6c65720000000000000081525060200191505060405180910390fd5b8060056000611a4e61277d565b73ffffffffffffffffffffffffffffffffffffffff1673ffffffffffffffffffffffffffffffffffffffff16815260200190815260200160002060008473ffffffffffffffffffffffffffffffffffffffff1673ffffffffffffffffffffffffffffffffffffffff16815260200190815260200160002060006101000a81548160ff0219169083151502179055508173ffffffffffffffffffffffffffffffffffffffff16611afb61277d565b73ffffffffffffffffffffffffffffffffffffffff167f17307eab39ab6107e8899845ad3d59bd9653f200f220920489ca2b5937696c318360405180821515815260200191505060405180910390a35050565b600081611b5a81612760565b611bcc576040517f08c379a00000000000000000000000000000000000000000000000000000000081526004018080602001828103825260138152602001807f417274206e6f742072656769737465726564210000000000000000000000000081525060200191505060405180910390fd5b6000600c600085815260200190815260200160002060009054906101000a900473ffffffffffffffffffffffffffffffffffffffff1690508073ffffffffffffffffffffffffffffffffffffffff1663d57bde796040518163ffffffff1660e01b815260040160206040518083038186803b158015611c4a57600080fd5b505afa158015611c5e573d6000803e3d6000fd5b505050506040513d6020811015611c7457600080fd5b810190808051906020019092919050505092505050919050565b600082611c9a81612760565b611d0c576040517f08c379a00000000000000000000000000000000000000000000000000000000081526004018080602001828103825260138152602001807f417274206e6f742072656769737465726564210000000000000000000000000081525060200191505060405180910390fd5b6000600c600086815260200190815260200160002060009054906101000a900473ffffffffffffffffffffffffffffffffffffffff1690508073ffffffffffffffffffffffffffffffffffffffff1663c937f9fd856040518263ffffffff1660e01b8152600401808273ffffffffffffffffffffffffffffffffffffffff16815260200191505060206040518083038186803b158015611dab57600080fd5b505afa158015611dbf573d6000803e3d6000fd5b505050506040513d6020811015611dd557600080fd5b81019080805190602001909291905050509250505092915050565b611e01611dfb61277d565b83612853565b611e56576040517f08c379a000000000000000000000000000000000000000000000000000000000815260040180806020018281038252603181526020018061472b6031913960400191505060405180910390fd5b611e6284848484612e82565b50505050565b611e7061277d565b73ffffffffffffffffffffffffffffffffffffffff16611e8e61180a565b73ffffffffffffffffffffffffffffffffffffffff1614611f17576040517f08c379a00000000000000000000000000000000000000000000000000000000081526004018080602001828103825260208152602001807f4f776e61626c653a2063616c6c6572206973206e6f7420746865206f776e657281525060200191505060405180910390fd5b80611f2181612760565b611f93576040517f08c379a00000000000000000000000000000000000000000000000000000000081526004018080602001828103825260138152602001807f417274206e6f742072656769737465726564210000000000000000000000000081525060200191505060405180910390fd5b6000611f9e83611750565b90508073ffffffffffffffffffffffffffffffffffffffff16632a24f46c6040518163ffffffff1660e01b8152600401600060405180830381600087803b158015611fe857600080fd5b505af1158015611ffc573d6000803e3d6000fd5b5050505061209261200b61180a565b8273ffffffffffffffffffffffffffffffffffffffff166391f901576040518163ffffffff1660e01b815260040160206040518083038186803b15801561205157600080fd5b505afa158015612065573d6000803e3d6000fd5b505050506040513d602081101561207b57600080fd5b810190808051906020019092919050505085611281565b505050565b60606120a282612760565b6120f7576040517f08c379a000000000000000000000000000000000000000000000000000000000815260040180806020018281038252602f8152602001806146db602f913960400191505060405180910390fd5b6060600860008481526020019081526020016000208054600181600116156101000203166002900480601f0160208091040260200160405190810160405280929190818152602001828054600181600116156101000203166002900480156121a05780601f10612175576101008083540402835291602001916121a0565b820191906000526020600020905b81548152906001019060200180831161218357829003601f168201915b5050505050905060606121b1611469565b90506000815114156121c7578192505050612363565b6000825111156122985780826040516020018083805190602001908083835b6020831061220957805182526020820191506020810190506020830392506121e6565b6001836020036101000a03801982511681845116808217855250505050505090500182805190602001908083835b6020831061225a5780518252602082019150602081019050602083039250612237565b6001836020036101000a0380198251168184511680821785525050505050509050019250505060405160208183030381529060405292505050612363565b806122a285612ef4565b6040516020018083805190602001908083835b602083106122d857805182526020820191506020810190506020830392506122b5565b6001836020036101000a03801982511681845116808217855250505050505090500182805190602001908083835b602083106123295780518252602082019150602081019050602083039250612306565b6001836020036101000a03801982511681845116808217855250505050505090500192505050604051602081830303815290604052925050505b919050565b61237061277d565b73ffffffffffffffffffffffffffffffffffffffff1661238e61180a565b73ffffffffffffffffffffffffffffffffffffffff1614612417576040517f08c379a00000000000000000000000000000000000000000000000000000000081526004018080602001828103825260208152602001807f4f776e61626c653a2063616c6c6572206973206e6f7420746865206f776e657281525060200191505060405180910390fd5b600b60009054906101000a900473ffffffffffffffffffffffffffffffffffffffff1660405161244690613a2a565b808273ffffffffffffffffffffffffffffffffffffffff168152602001915050604051809103906000f080158015612482573d6000803e3d6000fd5b50600c600083815260200190815260200160002060006101000a81548173ffffffffffffffffffffffffffffffffffffffff021916908373ffffffffffffffffffffffffffffffffffffffff16021790555050565b6000600560008473ffffffffffffffffffffffffffffffffffffffff1673ffffffffffffffffffffffffffffffffffffffff16815260200190815260200160002060008373ffffffffffffffffffffffffffffffffffffffff1673ffffffffffffffffffffffffffffffffffffffff16815260200190815260200160002060009054906101000a900460ff16905092915050565b61257361277d565b73ffffffffffffffffffffffffffffffffffffffff1661259161180a565b73ffffffffffffffffffffffffffffffffffffffff161461261a576040517f08c379a00000000000000000000000000000000000000000000000000000000081526004018080602001828103825260208152602001807f4f776e61626c653a2063616c6c6572206973206e6f7420746865206f776e657281525060200191505060405180910390fd5b600073ffffffffffffffffffffffffffffffffffffffff168173ffffffffffffffffffffffffffffffffffffffff1614156126a0576040517f08c379a00000000000000000000000000000000000000000000000000000000081526004018080602001828103825260268152602001806145116026913960400191505060405180910390fd5b8073ffffffffffffffffffffffffffffffffffffffff16600a60009054906101000a900473ffffffffffffffffffffffffffffffffffffffff1673ffffffffffffffffffffffffffffffffffffffff167f8be0079c531659141344cd1fd0a4f28419497f9722a3daafe3b4186f6b6457e060405160405180910390a380600a60006101000a81548173ffffffffffffffffffffffffffffffffffffffff021916908373ffffffffffffffffffffffffffffffffffffffff16021790555050565b600061277682600261303b90919063ffffffff16565b9050919050565b600033905090565b816004600083815260200190815260200160002060006101000a81548173ffffffffffffffffffffffffffffffffffffffff021916908373ffffffffffffffffffffffffffffffffffffffff160217905550808273ffffffffffffffffffffffffffffffffffffffff166127f883611432565b73ffffffffffffffffffffffffffffffffffffffff167f8c5be1e5ebec7d5bd14f71427d1e84f3dd0314c0f7b2291e5b200ac8c7c3b92560405160405180910390a45050565b600061284c82600001613055565b9050919050565b600061285e82612760565b6128b3576040517f08c379a000000000000000000000000000000000000000000000000000000000815260040180806020018281038252602c815260200180614581602c913960400191505060405180910390fd5b60006128be83611432565b90508073ffffffffffffffffffffffffffffffffffffffff168473ffffffffffffffffffffffffffffffffffffffff16148061292d57508373ffffffffffffffffffffffffffffffffffffffff1661291584610ee4565b73ffffffffffffffffffffffffffffffffffffffff16145b8061293e575061293d81856124d7565b5b91505092915050565b8273ffffffffffffffffffffffffffffffffffffffff1661296782611432565b73ffffffffffffffffffffffffffffffffffffffff16146129d3576040517f08c379a00000000000000000000000000000000000000000000000000000000081526004018080602001828103825260298152602001806146b26029913960400191505060405180910390fd5b600073ffffffffffffffffffffffffffffffffffffffff168273ffffffffffffffffffffffffffffffffffffffff161415612a59576040517f08c379a00000000000000000000000000000000000000000000000000000000081526004018080602001828103825260248152602001806145376024913960400191505060405180910390fd5b612a64838383613066565b612a6f600082612785565b612ac081600160008673ffffffffffffffffffffffffffffffffffffffff1673ffffffffffffffffffffffffffffffffffffffff16815260200190815260200160002061306b90919063ffffffff16565b50612b1281600160008573ffffffffffffffffffffffffffffffffffffffff1673ffffffffffffffffffffffffffffffffffffffff16815260200190815260200160002061308590919063ffffffff16565b50612b298183600261309f9092919063ffffffff16565b50808273ffffffffffffffffffffffffffffffffffffffff168473ffffffffffffffffffffffffffffffffffffffff167fddf252ad1be2c89b69c2b068fc378daa952ba7f163c4a11628f55a4df523b3ef60405160405180910390a4505050565b600073ffffffffffffffffffffffffffffffffffffffff168273ffffffffffffffffffffffffffffffffffffffff161415612c2d576040517f08c379a00000000000000000000000000000000000000000000000000000000081526004018080602001828103825260208152602001807f4552433732313a206d696e7420746f20746865207a65726f206164647265737381525060200191505060405180910390fd5b612c3681612760565b15612ca9576040517f08c379a000000000000000000000000000000000000000000000000000000000815260040180806020018281038252601c8152602001807f4552433732313a20746f6b656e20616c7265616479206d696e7465640000000081525060200191505060405180910390fd5b612cb560008383613066565b612d0681600160008573ffffffffffffffffffffffffffffffffffffffff1673ffffffffffffffffffffffffffffffffffffffff16815260200190815260200160002061308590919063ffffffff16565b50612d1d8183600261309f9092919063ffffffff16565b50808273ffffffffffffffffffffffffffffffffffffffff16600073ffffffffffffffffffffffffffffffffffffffff167fddf252ad1be2c89b69c2b068fc378daa952ba7f163c4a11628f55a4df523b3ef60405160405180910390a45050565b612d8782612760565b612ddc576040517f08c379a000000000000000000000000000000000000000000000000000000000815260040180806020018281038252602c815260200180614686602c913960400191505060405180910390fd5b80600860008481526020019081526020016000209080519060200190612e03929190613a37565b505050565b6000612e1783600001836130d4565b60001c905092915050565b600080600080612e358660000186613157565b915091508160001c8160001c9350935050509250929050565b6000612e61846000018460001b846131f0565b60001c90509392505050565b6000612e7b826000016132e6565b9050919050565b612e8d848484612947565b612e99848484846132f7565b612eee576040517f08c379a00000000000000000000000000000000000000000000000000000000081526004018080602001828103825260328152602001806144df6032913960400191505060405180910390fd5b50505050565b60606000821415612f3c576040518060400160405280600181526020017f30000000000000000000000000000000000000000000000000000000000000008152509050613036565b600082905060005b60008214612f66578080600101915050600a8281612f5e57fe5b049150612f44565b60608167ffffffffffffffff81118015612f7f57600080fd5b506040519080825280601f01601f191660200182016040528015612fb25781602001600182028036833780820191505090505b50905060006001830390508593505b6000841461302e57600a8481612fd357fe5b0660300160f81b82828060019003935081518110612fed57fe5b60200101907effffffffffffffffffffffffffffffffffffffffffffffffffffffffffffff1916908160001a905350600a848161302657fe5b049350612fc1565b819450505050505b919050565b600061304d836000018360001b613510565b905092915050565b600081600001805490509050919050565b505050565b600061307d836000018360001b613533565b905092915050565b6000613097836000018360001b61361b565b905092915050565b60006130cb846000018460001b8473ffffffffffffffffffffffffffffffffffffffff1660001b61368b565b90509392505050565b600081836000018054905011613135576040517f08c379a00000000000000000000000000000000000000000000000000000000081526004018080602001828103825260228152602001806144bd6022913960400191505060405180910390fd5b82600001828154811061314457fe5b9060005260206000200154905092915050565b600080828460000180549050116131b9576040517f08c379a00000000000000000000000000000000000000000000000000000000081526004018080602001828103825260228152602001806146386022913960400191505060405180910390fd5b60008460000184815481106131ca57fe5b906000526020600020906002020190508060000154816001015492509250509250929050565b600080846001016000858152602001908152602001600020549050600081141583906132b7576040517f08c379a00000000000000000000000000000000000000000000000000000000081526004018080602001828103825283818151815260200191508051906020019080838360005b8381101561327c578082015181840152602081019050613261565b50505050905090810190601f1680156132a95780820380516001836020036101000a031916815260200191505b509250505060405180910390fd5b508460000160018203815481106132ca57fe5b9060005260206000209060020201600101549150509392505050565b600081600001805490509050919050565b60006133188473ffffffffffffffffffffffffffffffffffffffff16613767565b6133255760019050613508565b606061348f63150b7a0260e01b61333a61277d565b888787604051602401808573ffffffffffffffffffffffffffffffffffffffff1681526020018473ffffffffffffffffffffffffffffffffffffffff16815260200183815260200180602001828103825283818151815260200191508051906020019080838360005b838110156133be5780820151818401526020810190506133a3565b50505050905090810190601f1680156133eb5780820380516001836020036101000a031916815260200191505b5095505050505050604051602081830303815290604052907bffffffffffffffffffffffffffffffffffffffffffffffffffffffff19166020820180517bffffffffffffffffffffffffffffffffffffffffffffffffffffffff83818316178352505050506040518060600160405280603281526020016144df603291398773ffffffffffffffffffffffffffffffffffffffff1661377a9092919063ffffffff16565b905060008180602001905160208110156134a857600080fd5b8101908080519060200190929190505050905063150b7a0260e01b7bffffffffffffffffffffffffffffffffffffffffffffffffffffffff1916817bffffffffffffffffffffffffffffffffffffffffffffffffffffffff191614925050505b949350505050565b600080836001016000848152602001908152602001600020541415905092915050565b6000808360010160008481526020019081526020016000205490506000811461360f576000600182039050600060018660000180549050039050600086600001828154811061357e57fe5b906000526020600020015490508087600001848154811061359b57fe5b90600052602060002001819055506001830187600101600083815260200190815260200160002081905550866000018054806135d357fe5b60019003818190600052602060002001600090559055866001016000878152602001908152602001600020600090556001945050505050613615565b60009150505b92915050565b60006136278383613792565b613680578260000182908060018154018082558091505060019003906000526020600020016000909190919091505582600001805490508360010160008481526020019081526020016000208190555060019050613685565b600090505b92915050565b600080846001016000858152602001908152602001600020549050600081141561373257846000016040518060400160405280868152602001858152509080600181540180825580915050600190039060005260206000209060020201600090919091909150600082015181600001556020820151816001015550508460000180549050856001016000868152602001908152602001600020819055506001915050613760565b8285600001600183038154811061374557fe5b90600052602060002090600202016001018190555060009150505b9392505050565b600080823b905060008111915050919050565b606061378984846000856137b5565b90509392505050565b600080836001016000848152602001908152602001600020541415905092915050565b606082471015613810576040517f08c379a000000000000000000000000000000000000000000000000000000000815260040180806020018281038252602681526020018061455b6026913960400191505060405180910390fd5b61381985613767565b61388b576040517f08c379a000000000000000000000000000000000000000000000000000000000815260040180806020018281038252601d8152602001807f416464726573733a2063616c6c20746f206e6f6e2d636f6e747261637400000081525060200191505060405180910390fd5b600060608673ffffffffffffffffffffffffffffffffffffffff1685876040518082805190602001908083835b602083106138db57805182526020820191506020810190506020830392506138b8565b6001836020036101000a03801982511681845116808217855250505050505090500191505060006040518083038185875af1925050503d806000811461393d576040519150601f19603f3d011682016040523d82523d6000602084013e613942565b606091505b509150915061395282828661395e565b92505050949350505050565b6060831561396e57829050613a23565b6000835111156139815782518084602001fd5b816040517f08c379a00000000000000000000000000000000000000000000000000000000081526004018080602001828103825283818151815260200191508051906020019080838360005b838110156139e85780820151818401526020810190506139cd565b50505050905090810190601f168015613a155780820380516001836020036101000a031916815260200191505b509250505060405180910390fd5b9392505050565b6109e880613ad583390190565b828054600181600116156101000203166002900490600052602060002090601f016020900481019282601f10613a7857805160ff1916838001178555613aa6565b82800160010185558215613aa6579182015b82811115613aa5578251825591602001919060010190613a8a565b5b509050613ab39190613ab7565b5090565b5b80821115613ad0576000816000905550600101613ab8565b509056fe608060405234801561001057600080fd5b506040516109e83803806109e88339818101604052602081101561003357600080fd5b8101908080519060200190929190505050336000806101000a81548173ffffffffffffffffffffffffffffffffffffffff021916908373ffffffffffffffffffffffffffffffffffffffff16021790555080600160006101000a81548173ffffffffffffffffffffffffffffffffffffffff021916908373ffffffffffffffffffffffffffffffffffffffff16021790555050610913806100d56000396000f3fe60806040526004361061007b5760003560e01c806391f901571161004e57806391f90157146101325780639cf5453d14610173578063c937f9fd146101b7578063d57bde791461021c5761007b565b806312fa6feb146100805780632a24f46c146100ad57806338af3eed146100c45780633ccfd60b14610105575b600080fd5b34801561008c57600080fd5b50610095610247565b60405180821515815260200191505060405180910390f35b3480156100b957600080fd5b506100c261025a565b005b3480156100d057600080fd5b506100d96104e1565b604051808273ffffffffffffffffffffffffffffffffffffffff16815260200191505060405180910390f35b34801561011157600080fd5b5061011a610507565b60405180821515815260200191505060405180910390f35b34801561013e57600080fd5b5061014761062b565b604051808273ffffffffffffffffffffffffffffffffffffffff16815260200191505060405180910390f35b6101b56004803603602081101561018957600080fd5b81019080803573ffffffffffffffffffffffffffffffffffffffff169060200190929190505050610651565b005b3480156101c357600080fd5b50610206600480360360208110156101da57600080fd5b81019080803573ffffffffffffffffffffffffffffffffffffffff16906020019092919050505061084a565b6040518082815260200191505060405180910390f35b34801561022857600080fd5b50610231610893565b6040518082815260200191505060405180910390f35b600560009054906101000a900460ff1681565b600560009054906101000a900460ff16156102c0576040517f08c379a000000000000000000000000000000000000000000000000000000000815260040180806020018281038252602381526020018061089a6023913960400191505060405180910390fd5b60008054906101000a900473ffffffffffffffffffffffffffffffffffffffff1673ffffffffffffffffffffffffffffffffffffffff163373ffffffffffffffffffffffffffffffffffffffff1614610364576040517f08c379a00000000000000000000000000000000000000000000000000000000081526004018080602001828103825260218152602001806108bd6021913960400191505060405180910390fd5b600160009054906101000a900473ffffffffffffffffffffffffffffffffffffffff1673ffffffffffffffffffffffffffffffffffffffff16600260009054906101000a900473ffffffffffffffffffffffffffffffffffffffff1673ffffffffffffffffffffffffffffffffffffffff16146103e057600080fd5b6001600560006101000a81548160ff0219169083151502179055507fdaec4582d5d9595688c8c98545fdd1c696d41c6aeaeb636737e84ed2f5c00eda600260009054906101000a900473ffffffffffffffffffffffffffffffffffffffff16600354604051808373ffffffffffffffffffffffffffffffffffffffff1681526020018281526020019250505060405180910390a1600160009054906101000a900473ffffffffffffffffffffffffffffffffffffffff1673ffffffffffffffffffffffffffffffffffffffff166108fc6003549081150290604051600060405180830381858888f193505050501580156104de573d6000803e3d6000fd5b50565b600160009054906101000a900473ffffffffffffffffffffffffffffffffffffffff1681565b600080600460003373ffffffffffffffffffffffffffffffffffffffff1673ffffffffffffffffffffffffffffffffffffffff1681526020019081526020016000205490506000811115610622576000600460003373ffffffffffffffffffffffffffffffffffffffff1673ffffffffffffffffffffffffffffffffffffffff168152602001908152602001600020819055503373ffffffffffffffffffffffffffffffffffffffff166108fc829081150290604051600060405180830381858888f193505050506106215780600460003373ffffffffffffffffffffffffffffffffffffffff1673ffffffffffffffffffffffffffffffffffffffff168152602001908152602001600020819055506000915050610628565b5b60019150505b90565b600260009054906101000a900473ffffffffffffffffffffffffffffffffffffffff1681565b60035434116106c8576040517f08c379a000000000000000000000000000000000000000000000000000000000815260040180806020018281038252601e8152602001807f546865726520616c7265616479206973206120686967686572206269642e000081525060200191505060405180910390fd5b600560009054906101000a900460ff161561072e576040517f08c379a000000000000000000000000000000000000000000000000000000000815260040180806020018281038252602381526020018061089a6023913960400191505060405180910390fd5b6000600354146107aa5760035460046000600260009054906101000a900473ffffffffffffffffffffffffffffffffffffffff1673ffffffffffffffffffffffffffffffffffffffff1673ffffffffffffffffffffffffffffffffffffffff168152602001908152602001600020600082825401925050819055505b80600260006101000a81548173ffffffffffffffffffffffffffffffffffffffff021916908373ffffffffffffffffffffffffffffffffffffffff160217905550346003819055507ff4757a49b326036464bec6fe419a4ae38c8a02ce3e68bf0809674f6aab8ad3008134604051808373ffffffffffffffffffffffffffffffffffffffff1681526020018281526020019250505060405180910390a150565b6000600460008373ffffffffffffffffffffffffffffffffffffffff1673ffffffffffffffffffffffffffffffffffffffff168152602001908152602001600020549050919050565b6003548156fe61756374696f6e456e642068617320616c7265616479206265656e2063616c6c65642e596f7520617265206e6f74207468652061756374696f6e206465706c6f79657221a26469706673582212201814c13cf1415705d69c89c2b09c7af2b96ff03d76c97afa27d233f848c25d3f64736f6c634300060c0033456e756d657261626c655365743a20696e646578206f7574206f6620626f756e64734552433732313a207472616e7366657220746f206e6f6e20455243373231526563656976657220696d706c656d656e7465724f776e61626c653a206e6577206f776e657220697320746865207a65726f20616464726573734552433732313a207472616e7366657220746f20746865207a65726f2061646472657373416464726573733a20696e73756666696369656e742062616c616e636520666f722063616c6c4552433732313a206f70657261746f7220717565727920666f72206e6f6e6578697374656e7420746f6b656e4552433732313a20617070726f76652063616c6c6572206973206e6f74206f776e6572206e6f7220617070726f76656420666f7220616c6c4552433732313a2062616c616e636520717565727920666f7220746865207a65726f20616464726573734552433732313a206f776e657220717565727920666f72206e6f6e6578697374656e7420746f6b656e456e756d657261626c654d61703a20696e646578206f7574206f6620626f756e64734552433732313a20617070726f76656420717565727920666f72206e6f6e6578697374656e7420746f6b656e4552433732314d657461646174613a2055524920736574206f66206e6f6e6578697374656e7420746f6b656e4552433732313a207472616e73666572206f6620746f6b656e2074686174206973206e6f74206f776e4552433732314d657461646174613a2055524920717565727920666f72206e6f6e6578697374656e7420746f6b656e4552433732313a20617070726f76616c20746f2063757272656e74206f776e65724552433732313a207472616e736665722063616c6c6572206973206e6f74206f776e6572206e6f7220617070726f766564a264697066735822122085d2d65a4e6eada45f3bea12d6927dd718fa75cba2f00ad6f50683733fd2865b64736f6c634300060c0033",
  "immutableReferences": {},
  "source": "// SPDX-License-Identifier: GPL-3.0\npragma solidity ^0.6.0;\n\nimport '@openzeppelin/contracts/token/ERC721/ERC721.sol';\nimport '@openzeppelin/contracts/access/Ownable.sol';\nimport './GUArtAuction.sol';\n\n\n//create God's Unchained (GU) art market to faciliate bidding and transfer of ownership or original GU Art using ERC-721 NFTs\ncontract GUArtMarket is ERC721, Ownable {\n    constructor() ERC721(\"GUArtMarket\", \"GUAM\") public {}\n    \n    // cast a payable address for the Martian Development Foundation to be the beneficiary in the auction\n    // this contract is designed to have the owner of this contract (foundation) to pay for most of the function calls\n    //deployer of the contract - address of the foundation\n    // (all but bid and withdraw)\n    address payable foundation_address = address(uint160(owner()));\n\n    //using Counters for Counters.Counter;\n    //Counters.Counter token_ids;\n\n    mapping(uint => GUArtAuction) public auctions;\n\n    //Art registered - check if it exists\n    modifier GUartRegistered(uint token_id) {\n        require(_exists(token_id), \"Art not registered!\");\n        _;\n    }\n\n    function createAuction(uint token_id) public onlyOwner {\n        auctions[token_id] = new GUArtAuction(foundation_address);\n    }\n\n    function getAuction(uint token_id) public view GUartRegistered(token_id) returns(GUArtAuction auction) {\n        return auctions[token_id];\n    }\n    \n    //pass on URI that contains metadata about the art.  only owner can call this to register the art\n    //token_ids.increment();  //create new token id.. increment by 1\n    //uint token_id = token_ids.current();  //unique token_id (1 higher than previous)\n    function registerArt(string memory tokenURI) public payable onlyOwner {\n        uint _id = totalSupply();\n        _mint(msg.sender, _id);  //mint token and pass on id\n        _setTokenURI(_id, tokenURI);  //set URI\n        createAuction(_id);  //run create aunction function\n    }\n\n    //end aunction for particular token id.  checked to see if it exists first\n    function endAuction(uint token_id) public onlyOwner GUartRegistered(token_id) {\n        GUArtAuction auction = getAuction(token_id);\n        auction.auctionEnd();\n        safeTransferFrom(owner(), auction.highestBidder(), token_id);\n    }\n\n    function auctionEnded(uint token_id) public view returns(bool) {\n        GUArtAuction auction = auctions[token_id];\n        return auction.ended();\n    }\n\n    function highestBid(uint token_id) public view GUartRegistered(token_id) returns(uint) {\n        GUArtAuction auction = auctions[token_id];\n        return auction.highestBid();\n    }\n\n    function pendingReturn(uint token_id, address sender) public view GUartRegistered(token_id) returns(uint) {\n        GUArtAuction auction = auctions[token_id];\n        return auction.pendingReturn(sender);\n    }\n    \n    //allows users to send in ether and send to aunction contract\n    //function sould be public payable to accept ether\n    function bid(uint token_id) public payable GUartRegistered(token_id) {\n        GUArtAuction auction = auctions[token_id];\n        //accepting the address from the msg.sender\n        auction.bid.value(msg.value)(msg.sender);\n    }\n\n}\n",
  "sourcePath": "C:/Users/zarbi/uw-blv-fin-pt-11-2020-u-c/23-Project-3/Project3-GUAuction/GUArt_market/contracts/GUArtMarket.sol",
  "compiler": {
    "name": "solc",
    "version": "0.6.12+commit.27d51765.Emscripten.clang"
  },
  "schemaVersion": "3.4.1",
  "updatedAt": "2021-05-11T23:39:24.756Z",
  "devdoc": {
    "kind": "dev",
    "methods": {
      "approve(address,uint256)": {
        "details": "See {IERC721-approve}."
      },
      "balanceOf(address)": {
        "details": "See {IERC721-balanceOf}."
      },
      "baseURI()": {
        "details": "Returns the base URI set via {_setBaseURI}. This will be automatically added as a prefix in {tokenURI} to each token's URI, or to the token ID if no specific URI is set for that token ID."
      },
      "getApproved(uint256)": {
        "details": "See {IERC721-getApproved}."
      },
      "isApprovedForAll(address,address)": {
        "details": "See {IERC721-isApprovedForAll}."
      },
      "name()": {
        "details": "See {IERC721Metadata-name}."
      },
      "owner()": {
        "details": "Returns the address of the current owner."
      },
      "ownerOf(uint256)": {
        "details": "See {IERC721-ownerOf}."
      },
      "renounceOwnership()": {
        "details": "Leaves the contract without owner. It will not be possible to call `onlyOwner` functions anymore. Can only be called by the current owner. NOTE: Renouncing ownership will leave the contract without an owner, thereby removing any functionality that is only available to the owner."
      },
      "safeTransferFrom(address,address,uint256)": {
        "details": "See {IERC721-safeTransferFrom}."
      },
      "safeTransferFrom(address,address,uint256,bytes)": {
        "details": "See {IERC721-safeTransferFrom}."
      },
      "setApprovalForAll(address,bool)": {
        "details": "See {IERC721-setApprovalForAll}."
      },
      "supportsInterface(bytes4)": {
        "details": "See {IERC165-supportsInterface}. Time complexity O(1), guaranteed to always use less than 30 000 gas."
      },
      "symbol()": {
        "details": "See {IERC721Metadata-symbol}."
      },
      "tokenByIndex(uint256)": {
        "details": "See {IERC721Enumerable-tokenByIndex}."
      },
      "tokenOfOwnerByIndex(address,uint256)": {
        "details": "See {IERC721Enumerable-tokenOfOwnerByIndex}."
      },
      "tokenURI(uint256)": {
        "details": "See {IERC721Metadata-tokenURI}."
      },
      "totalSupply()": {
        "details": "See {IERC721Enumerable-totalSupply}."
      },
      "transferFrom(address,address,uint256)": {
        "details": "See {IERC721-transferFrom}."
      },
      "transferOwnership(address)": {
        "details": "Transfers ownership of the contract to a new account (`newOwner`). Can only be called by the current owner."
      }
    },
    "version": 1
  },
  "userdoc": {
    "kind": "user",
    "methods": {},
    "version": 1
  }
}